{
  "contractName": "CoinFlip",
  "abi": [
    {
      "inputs": [],
      "payable": true,
      "stateMutability": "payable",
      "type": "constructor"
    },
    {
      "anonymous": false,
      "inputs": [
        {
          "indexed": false,
          "internalType": "string",
          "name": "description",
          "type": "string"
        }
      ],
      "name": "LogNewProvableQuery",
      "type": "event"
    },
    {
      "anonymous": false,
      "inputs": [
        {
          "indexed": false,
          "internalType": "uint256",
          "name": "randomNumber",
          "type": "uint256"
        }
      ],
      "name": "generatedRandomNumber",
      "type": "event"
    },
    {
      "anonymous": false,
      "inputs": [
        {
          "indexed": false,
          "internalType": "string",
          "name": "description",
          "type": "string"
        }
      ],
      "name": "lose",
      "type": "event"
    },
    {
      "anonymous": false,
      "inputs": [
        {
          "indexed": false,
          "internalType": "string",
          "name": "description",
          "type": "string"
        }
      ],
      "name": "mappingUpdated",
      "type": "event"
    },
    {
      "anonymous": false,
      "inputs": [
        {
          "indexed": false,
          "internalType": "string",
          "name": "description",
          "type": "string"
        }
      ],
      "name": "playerInfoAdded",
      "type": "event"
    },
    {
      "anonymous": false,
      "inputs": [
        {
          "indexed": false,
          "internalType": "string",
          "name": "description",
          "type": "string"
        }
      ],
      "name": "win",
      "type": "event"
    },
    {
      "constant": true,
      "inputs": [
        {
          "internalType": "bytes32",
          "name": "",
          "type": "bytes32"
        }
      ],
      "name": "_results",
      "outputs": [
        {
          "internalType": "address payable",
          "name": "playerAddress",
          "type": "address"
        },
        {
          "internalType": "uint256",
          "name": "betValue",
          "type": "uint256"
        },
        {
          "internalType": "uint256",
          "name": "side",
          "type": "uint256"
        },
        {
          "internalType": "uint256",
          "name": "randomNumber",
          "type": "uint256"
        },
        {
          "internalType": "bool",
          "name": "winOrLose",
          "type": "bool"
        }
      ],
      "payable": false,
      "stateMutability": "view",
      "type": "function"
    },
    {
      "constant": true,
      "inputs": [],
      "name": "contractBalance",
      "outputs": [
        {
          "internalType": "uint256",
          "name": "",
          "type": "uint256"
        }
      ],
      "payable": false,
      "stateMutability": "view",
      "type": "function"
    },
    {
      "constant": true,
      "inputs": [],
      "name": "latestNumber",
      "outputs": [
        {
          "internalType": "uint256",
          "name": "",
          "type": "uint256"
        }
      ],
      "payable": false,
      "stateMutability": "view",
      "type": "function"
    },
    {
      "constant": true,
      "inputs": [],
      "name": "owner",
      "outputs": [
        {
          "internalType": "address",
          "name": "",
          "type": "address"
        }
      ],
      "payable": false,
      "stateMutability": "view",
      "type": "function"
    },
    {
      "constant": false,
      "inputs": [
        {
          "internalType": "uint256",
          "name": "_coinSide",
          "type": "uint256"
        }
      ],
      "name": "bet",
      "outputs": [],
      "payable": true,
      "stateMutability": "payable",
      "type": "function"
    },
    {
      "constant": false,
      "inputs": [
        {
          "internalType": "bytes32",
          "name": "_queryId",
          "type": "bytes32"
        },
        {
          "internalType": "string",
          "name": "_result",
          "type": "string"
        }
      ],
      "name": "__callback",
      "outputs": [],
      "payable": false,
      "stateMutability": "nonpayable",
      "type": "function"
    },
    {
      "constant": false,
      "inputs": [
        {
          "internalType": "bytes32",
          "name": "_myid",
          "type": "bytes32"
        },
        {
          "internalType": "string",
          "name": "_result",
          "type": "string"
        },
        {
          "internalType": "bytes",
          "name": "_proof",
          "type": "bytes"
        }
      ],
      "name": "__callback",
      "outputs": [],
      "payable": false,
      "stateMutability": "nonpayable",
      "type": "function"
    },
    {
      "constant": false,
      "inputs": [],
      "name": "withdrawBal",
      "outputs": [],
      "payable": false,
      "stateMutability": "nonpayable",
      "type": "function"
    },
    {
      "constant": true,
      "inputs": [],
      "name": "viewContractBalance",
      "outputs": [
        {
          "internalType": "uint256",
          "name": "",
          "type": "uint256"
        }
      ],
      "payable": false,
      "stateMutability": "view",
      "type": "function"
    },
    {
      "constant": true,
      "inputs": [],
      "name": "showOwner",
      "outputs": [
        {
          "internalType": "address",
          "name": "",
          "type": "address"
        }
      ],
      "payable": false,
      "stateMutability": "view",
      "type": "function"
    },
    {
      "constant": false,
      "inputs": [],
      "name": "donate",
      "outputs": [],
      "payable": true,
      "stateMutability": "payable",
      "type": "function"
    }
  ],
  "bytecode": "0x6080604052670de0b6b3a76400003414610064576040517f08c379a000000000000000000000000000000000000000000000000000000000815260040180806020018281038252603d815260200180612e5d603d913960400191505060405180910390fd5b33600560006101000a81548173ffffffffffffffffffffffffffffffffffffffff021916908373ffffffffffffffffffffffffffffffffffffffff16021790555034600681905550612da2806100bb6000396000f3fe60806040526004361061009c5760003560e01c80638da5cb5b116100645780638da5cb5b14610360578063906ca507146103b7578063dc34b0aa14610452578063ded946881461047d578063ed88c68e146104d4578063f6364cc1146104de5761009c565b806327dc297e146100a157806338bbfa50146101735780635c8de34c146102dc5780637365870b146103075780638b7afe2e14610335575b600080fd5b3480156100ad57600080fd5b50610171600480360360408110156100c457600080fd5b8101908080359060200190929190803590602001906401000000008111156100eb57600080fd5b8201836020820111156100fd57600080fd5b8035906020019184600183028401116401000000008311171561011f57600080fd5b91908080601f016020809104026020016040519081016040528093929190818152602001838380828437600081840152601f19601f8201169050808301925050505050505091929192905050506104f5565b005b34801561017f57600080fd5b506102da6004803603606081101561019657600080fd5b8101908080359060200190929190803590602001906401000000008111156101bd57600080fd5b8201836020820111156101cf57600080fd5b803590602001918460018302840111640100000000831117156101f157600080fd5b91908080601f016020809104026020016040519081016040528093929190818152602001838380828437600081840152601f19601f8201169050808301925050505050505091929192908035906020019064010000000081111561025457600080fd5b82018360208201111561026657600080fd5b8035906020019184600183028401116401000000008311171561028857600080fd5b91908080601f016020809104026020016040519081016040528093929190818152602001838380828437600081840152601f19601f82011690508083019250505050505050919291929050505061066f565b005b3480156102e857600080fd5b506102f1610692565b6040518082815260200191505060405180910390f35b6103336004803603602081101561031d57600080fd5b81019080803590602001909291905050506106b1565b005b34801561034157600080fd5b5061034a6108c6565b6040518082815260200191505060405180910390f35b34801561036c57600080fd5b506103756108cc565b604051808273ffffffffffffffffffffffffffffffffffffffff1673ffffffffffffffffffffffffffffffffffffffff16815260200191505060405180910390f35b3480156103c357600080fd5b506103f0600480360360208110156103da57600080fd5b81019080803590602001909291905050506108f2565b604051808673ffffffffffffffffffffffffffffffffffffffff1673ffffffffffffffffffffffffffffffffffffffff168152602001858152602001848152602001838152602001821515151581526020019550505050505060405180910390f35b34801561045e57600080fd5b50610467610955565b6040518082815260200191505060405180910390f35b34801561048957600080fd5b5061049261095b565b604051808273ffffffffffffffffffffffffffffffffffffffff1673ffffffffffffffffffffffffffffffffffffffff16815260200191505060405180910390f35b6104dc610985565b005b3480156104ea57600080fd5b506104f3610a0d565b005b6104fd610ac0565b73ffffffffffffffffffffffffffffffffffffffff163373ffffffffffffffffffffffffffffffffffffffff161461059d576040517f08c379a000000000000000000000000000000000000000000000000000000000815260040180806020018281038252600f8152602001807f43616c6c6261636b206572726f722e000000000000000000000000000000000081525060200191505060405180910390fd5b60006002826040516020018082805190602001908083835b602083106105d857805182526020820191506020810190506020830392506105b5565b6001836020036101000a0380198251168184511680821785525050505050509050019150506040516020818303038152906040528051906020012060001c8161061d57fe5b069050806007819055507fc13d60fe9dffdb6908d2d446cd18134373a51db0738ee04f296eeb9128121cbc816040518082815260200191505060405180910390a161066a83600754610ddd565b505050565b6000801b600360008060001b815260200190815260200160002081905550505050565b60003073ffffffffffffffffffffffffffffffffffffffff1631905090565b600654600334021061070e576040517f08c379a000000000000000000000000000000000000000000000000000000000815260040180806020018281038252602f815260200180612cab602f913960400191505060405180910390fd5b600181148061071d5750600081145b610772576040517f08c379a0000000000000000000000000000000000000000000000000000000008152600401808060200182810382526035815260200180612d396035913960400191505060405180910390fd5b346006600082825401925050819055506000809050600062030d409050600061079d8360018461102c565b90507fc4dc360d0a9c0677a3379ae0a3d81e887f761e65fdf3d7e00859d1bcd3c47389604051808060200182810382526034815260200180612d056034913960400191505060405180910390a1336008600083815260200190815260200160002060000160006101000a81548173ffffffffffffffffffffffffffffffffffffffff021916908373ffffffffffffffffffffffffffffffffffffffff1602179055503460086000838152602001908152602001600020600101819055508360086000838152602001908152602001600020600201819055507fe0a353d5e1ee58224957fe82f98f2c69f12224273928a5b57a4738079f99091760405180806020018281038252602b815260200180612cda602b913960400191505060405180910390a150505050565b60065481565b600560009054906101000a900473ffffffffffffffffffffffffffffffffffffffff1681565b60086020528060005260406000206000915090508060000160009054906101000a900473ffffffffffffffffffffffffffffffffffffffff16908060010154908060020154908060030154908060040160009054906101000a900460ff16905085565b60075481565b6000600560009054906101000a900473ffffffffffffffffffffffffffffffffffffffff16905090565b600034116109fb576040517f08c379a000000000000000000000000000000000000000000000000000000000815260040180806020018281038252601c8152602001807f506c6561736520656e74657220612076616c696420616d6f756e742e0000000081525060200191505060405180910390fd5b34600660008282540192505081905550565b600560009054906101000a900473ffffffffffffffffffffffffffffffffffffffff1673ffffffffffffffffffffffffffffffffffffffff163373ffffffffffffffffffffffffffffffffffffffff1614610a6757600080fd5b600060065490503373ffffffffffffffffffffffffffffffffffffffff166108fc829081150290604051600060405180830381858888f19350505050158015610ab4573d6000803e3d6000fd5b50600060068190555050565b60008073ffffffffffffffffffffffffffffffffffffffff16600160009054906101000a900473ffffffffffffffffffffffffffffffffffffffff1673ffffffffffffffffffffffffffffffffffffffff161480610b4857506000610b46600160009054906101000a900473ffffffffffffffffffffffffffffffffffffffff166115c7565b145b15610b5957610b5760006115d2565b505b600160009054906101000a900473ffffffffffffffffffffffffffffffffffffffff1673ffffffffffffffffffffffffffffffffffffffff166338cc48316040518163ffffffff1660e01b8152600401602060405180830381600087803b158015610bc357600080fd5b505af1158015610bd7573d6000803e3d6000fd5b505050506040513d6020811015610bed57600080fd5b810190808051906020019092919050505073ffffffffffffffffffffffffffffffffffffffff166000809054906101000a900473ffffffffffffffffffffffffffffffffffffffff1673ffffffffffffffffffffffffffffffffffffffff1614610d3657600160009054906101000a900473ffffffffffffffffffffffffffffffffffffffff1673ffffffffffffffffffffffffffffffffffffffff166338cc48316040518163ffffffff1660e01b8152600401602060405180830381600087803b158015610cbb57600080fd5b505af1158015610ccf573d6000803e3d6000fd5b505050506040513d6020811015610ce557600080fd5b81019080805190602001909291905050506000806101000a81548173ffffffffffffffffffffffffffffffffffffffff021916908373ffffffffffffffffffffffffffffffffffffffff1602179055505b6000809054906101000a900473ffffffffffffffffffffffffffffffffffffffff1673ffffffffffffffffffffffffffffffffffffffff1663c281d19e6040518163ffffffff1660e01b815260040160206040518083038186803b158015610d9d57600080fd5b505afa158015610db1573d6000803e3d6000fd5b505050506040513d6020811015610dc757600080fd5b8101908080519060200190929190505050905090565b806008600084815260200190815260200160002060030181905550600160086000848152602001908152602001600020600301541415610f5357600115156008600084815260200190815260200160002060040160009054906101000a905050506000600360086000858152602001908152602001600020600101540290506008600084815260200190815260200160002060000160009054906101000a900473ffffffffffffffffffffffffffffffffffffffff1673ffffffffffffffffffffffffffffffffffffffff166108fc829081150290604051600060405180830381858888f19350505050158015610ed8573d6000803e3d6000fd5b50806006600082825403925050819055507f3f4bf35c72d3f07e4b504b29131f13b11fcaa6171b820691b631910d6b86dd7d6040518080602001828103825260088152602001807f596f7520776f6e2100000000000000000000000000000000000000000000000081525060200191505060405180910390a1505b60006008600084815260200190815260200160002060030154141561102857600015156008600084815260200190815260200160002060040160009054906101000a9050505060086000838152602001908152602001600020600101546006600082825401925050819055507fbd957735bc83bf8acf4cefd582d9397ffbfbe8fad256799f4d1424688e4d5a4d6040518080602001828103825260098152602001807f596f75206c6f73742e000000000000000000000000000000000000000000000081525060200191505060405180910390a15b5050565b6000808311801561103e575060208311155b61104757600080fd5b600a84029350606060016040519080825280601f01601f1916602001820160405280156110835781602001600182028038833980820191505090505b5090508360f81b8160008151811061109757fe5b60200101907effffffffffffffffffffffffffffffffffffffffffffffffffffffffffffff1916908160001a905350606060206040519080825280601f01601f1916602001820160405280156110fc5781602001600182028038833980820191505090505b509050606060206040519080825280601f01601f1916602001820160405280156111355781602001600182028038833980820191505090505b50905060006111426115e3565b905060208352424118600143034018602084015260208252806020830152606060206040519080825280601f01601f1916602001820160405280156111965781602001600182028038833980820191505090505b509050886020820152606060086040519080825280601f01601f1916602001820160405280156111d55781602001600182028038833980820191505090505b5090506111e88260186008846000611900565b506111f1612bc4565b604051806080016040528087815260200188815260200186815260200184815250905060006112566040518060400160405280600681526020017f72616e646f6d0000000000000000000000000000000000000000000000000000815250838c61195f565b9050606060086040519080825280601f01601f19166020018201604052801561128e5781602001600182028038833980820191505090505b50905060208401517f0100000000000000000000000000000000000000000000000000000000000000810460278301537e01000000000000000000000000000000000000000000000000000000000000810460268301537d010000000000000000000000000000000000000000000000000000000000810460258301537c0100000000000000000000000000000000000000000000000000000000810460248301537b01000000000000000000000000000000000000000000000000000000810460238301537a0100000000000000000000000000000000000000000000000000008104602283015379010000000000000000000000000000000000000000000000000081046021830153780100000000000000000000000000000000000000000000000081046020830153506115b48282856001600481106113cd57fe5b60200201516002876000600481106113e157fe5b60200201516040518082805190602001908083835b6020831061141957805182526020820191506020810190506020830392506113f6565b6001836020036101000a038019825116818451168082178552505050505050905001915050602060405180830381855afa15801561145b573d6000803e3d6000fd5b5050506040513d602081101561147057600080fd5b81019080805190602001909291905050508760026004811061148e57fe5b60200201516040516020018085805190602001908083835b602083106114c957805182526020820191506020810190506020830392506114a6565b6001836020036101000a03801982511681845116808217855250505050505090500184805190602001908083835b6020831061151a57805182526020820191506020810190506020830392506114f7565b6001836020036101000a03801982511681845116808217855250505050505090500183815260200182805190602001908083835b60208310611571578051825260208201915060208101905060208303925061154e565b6001836020036101000a03801982511681845116808217855250505050505090500194505050505060405160208183030381529060405280519060200120611ccc565b8199505050505050505050509392505050565b6000813b9050919050565b60006115dc611ce8565b9050919050565b60008073ffffffffffffffffffffffffffffffffffffffff16600160009054906101000a900473ffffffffffffffffffffffffffffffffffffffff1673ffffffffffffffffffffffffffffffffffffffff16148061166b57506000611669600160009054906101000a900473ffffffffffffffffffffffffffffffffffffffff166115c7565b145b1561167c5761167a60006115d2565b505b600160009054906101000a900473ffffffffffffffffffffffffffffffffffffffff1673ffffffffffffffffffffffffffffffffffffffff166338cc48316040518163ffffffff1660e01b8152600401602060405180830381600087803b1580156116e657600080fd5b505af11580156116fa573d6000803e3d6000fd5b505050506040513d602081101561171057600080fd5b810190808051906020019092919050505073ffffffffffffffffffffffffffffffffffffffff166000809054906101000a900473ffffffffffffffffffffffffffffffffffffffff1673ffffffffffffffffffffffffffffffffffffffff161461185957600160009054906101000a900473ffffffffffffffffffffffffffffffffffffffff1673ffffffffffffffffffffffffffffffffffffffff166338cc48316040518163ffffffff1660e01b8152600401602060405180830381600087803b1580156117de57600080fd5b505af11580156117f2573d6000803e3d6000fd5b505050506040513d602081101561180857600080fd5b81019080805190602001909291905050506000806101000a81548173ffffffffffffffffffffffffffffffffffffffff021916908373ffffffffffffffffffffffffffffffffffffffff1602179055505b6000809054906101000a900473ffffffffffffffffffffffffffffffffffffffff1673ffffffffffffffffffffffffffffffffffffffff1663abaa5f3e6040518163ffffffff1660e01b815260040160206040518083038186803b1580156118c057600080fd5b505afa1580156118d4573d6000803e3d6000fd5b505050506040513d60208110156118ea57600080fd5b8101908080519060200190929190505050905090565b606060008285019050808451101561191757600080fd5b600086602001905060008460200190505b8688602001018210156119505781890151808288015250602082019150602081019050611928565b85935050505095945050505050565b60008073ffffffffffffffffffffffffffffffffffffffff16600160009054906101000a900473ffffffffffffffffffffffffffffffffffffffff1673ffffffffffffffffffffffffffffffffffffffff1614806119e7575060006119e5600160009054906101000a900473ffffffffffffffffffffffffffffffffffffffff166115c7565b145b156119f8576119f660006115d2565b505b600160009054906101000a900473ffffffffffffffffffffffffffffffffffffffff1673ffffffffffffffffffffffffffffffffffffffff166338cc48316040518163ffffffff1660e01b8152600401602060405180830381600087803b158015611a6257600080fd5b505af1158015611a76573d6000803e3d6000fd5b505050506040513d6020811015611a8c57600080fd5b810190808051906020019092919050505073ffffffffffffffffffffffffffffffffffffffff166000809054906101000a900473ffffffffffffffffffffffffffffffffffffffff1673ffffffffffffffffffffffffffffffffffffffff1614611bd557600160009054906101000a900473ffffffffffffffffffffffffffffffffffffffff1673ffffffffffffffffffffffffffffffffffffffff166338cc48316040518163ffffffff1660e01b8152600401602060405180830381600087803b158015611b5a57600080fd5b505af1158015611b6e573d6000803e3d6000fd5b505050506040513d6020811015611b8457600080fd5b81019080805190602001909291905050506000806101000a81548173ffffffffffffffffffffffffffffffffffffffff021916908373ffffffffffffffffffffffffffffffffffffffff1602179055505b60606004604051908082528060200260200182016040528015611c0c57816020015b6060815260200190600190039081611bf75790505b50905083600060048110611c1c57fe5b602002015181600081518110611c2e57fe5b602002602001018190525083600160048110611c4657fe5b602002015181600181518110611c5857fe5b602002602001018190525083600260048110611c7057fe5b602002015181600281518110611c8257fe5b602002602001018190525083600360048110611c9a57fe5b602002015181600381518110611cac57fe5b6020026020010181905250611cc285828561223f565b9150509392505050565b8060036000848152602001908152602001600020819055505050565b600080611d08731d3b2638a7cc9f2cb3d298a3da7a90b67e5506ed6115c7565b1115611daa57731d3b2638a7cc9f2cb3d298a3da7a90b67e5506ed600160006101000a81548173ffffffffffffffffffffffffffffffffffffffff021916908373ffffffffffffffffffffffffffffffffffffffff160217905550611da16040518060400160405280600b81526020017f6574685f6d61696e6e65740000000000000000000000000000000000000000008152506127a1565b6001905061223c565b6000611dc973c03a2615d5efaf5f49f60b7bb6583eaec212fdf16115c7565b1115611e6b5773c03a2615d5efaf5f49f60b7bb6583eaec212fdf1600160006101000a81548173ffffffffffffffffffffffffffffffffffffffff021916908373ffffffffffffffffffffffffffffffffffffffff160217905550611e626040518060400160405280600c81526020017f6574685f726f707374656e3300000000000000000000000000000000000000008152506127a1565b6001905061223c565b6000611e8a73b7a07bcf2ba2f2703b24c0691b5278999c59ac7e6115c7565b1115611f2c5773b7a07bcf2ba2f2703b24c0691b5278999c59ac7e600160006101000a81548173ffffffffffffffffffffffffffffffffffffffff021916908373ffffffffffffffffffffffffffffffffffffffff160217905550611f236040518060400160405280600981526020017f6574685f6b6f76616e00000000000000000000000000000000000000000000008152506127a1565b6001905061223c565b6000611f4b73146500cfd35b22e4a392fe0adc06de1a1368ed486115c7565b1115611fed5773146500cfd35b22e4a392fe0adc06de1a1368ed48600160006101000a81548173ffffffffffffffffffffffffffffffffffffffff021916908373ffffffffffffffffffffffffffffffffffffffff160217905550611fe46040518060400160405280600b81526020017f6574685f72696e6b6562790000000000000000000000000000000000000000008152506127a1565b6001905061223c565b600061200c73a2998efd205fb9d4b4963afb70778d6354ad3a416115c7565b11156120ae5773a2998efd205fb9d4b4963afb70778d6354ad3a41600160006101000a81548173ffffffffffffffffffffffffffffffffffffffff021916908373ffffffffffffffffffffffffffffffffffffffff1602179055506120a56040518060400160405280600a81526020017f6574685f676f65726c69000000000000000000000000000000000000000000008152506127a1565b6001905061223c565b60006120cd736f485c8bf6fc43ea212e93bbf8ce046c7f1cb4756115c7565b111561213157736f485c8bf6fc43ea212e93bbf8ce046c7f1cb475600160006101000a81548173ffffffffffffffffffffffffffffffffffffffff021916908373ffffffffffffffffffffffffffffffffffffffff1602179055506001905061223c565b60006121507320e12a1f859b3feae5fb2a0a32c18f5a65555bbf6115c7565b11156121b4577320e12a1f859b3feae5fb2a0a32c18f5a65555bbf600160006101000a81548173ffffffffffffffffffffffffffffffffffffffff021916908373ffffffffffffffffffffffffffffffffffffffff1602179055506001905061223c565b60006121d37351efaf4c8b3c9afbd5ab9f4bbc82784ab6ef8faa6115c7565b1115612237577351efaf4c8b3c9afbd5ab9f4bbc82784ab6ef8faa600160006101000a81548173ffffffffffffffffffffffffffffffffffffffff021916908373ffffffffffffffffffffffffffffffffffffffff1602179055506001905061223c565b600090505b90565b60008073ffffffffffffffffffffffffffffffffffffffff16600160009054906101000a900473ffffffffffffffffffffffffffffffffffffffff1673ffffffffffffffffffffffffffffffffffffffff1614806122c7575060006122c5600160009054906101000a900473ffffffffffffffffffffffffffffffffffffffff166115c7565b145b156122d8576122d660006115d2565b505b600160009054906101000a900473ffffffffffffffffffffffffffffffffffffffff1673ffffffffffffffffffffffffffffffffffffffff166338cc48316040518163ffffffff1660e01b8152600401602060405180830381600087803b15801561234257600080fd5b505af1158015612356573d6000803e3d6000fd5b505050506040513d602081101561236c57600080fd5b810190808051906020019092919050505073ffffffffffffffffffffffffffffffffffffffff166000809054906101000a900473ffffffffffffffffffffffffffffffffffffffff1673ffffffffffffffffffffffffffffffffffffffff16146124b557600160009054906101000a900473ffffffffffffffffffffffffffffffffffffffff1673ffffffffffffffffffffffffffffffffffffffff166338cc48316040518163ffffffff1660e01b8152600401602060405180830381600087803b15801561243a57600080fd5b505af115801561244e573d6000803e3d6000fd5b505050506040513d602081101561246457600080fd5b81019080805190602001909291905050506000806101000a81548173ffffffffffffffffffffffffffffffffffffffff021916908373ffffffffffffffffffffffffffffffffffffffff1602179055505b60008060009054906101000a900473ffffffffffffffffffffffffffffffffffffffff1673ffffffffffffffffffffffffffffffffffffffff16632ef3accc86856040518363ffffffff1660e01b81526004018080602001838152602001828103825284818151815260200191508051906020019080838360005b8381101561254b578082015181840152602081019050612530565b50505050905090810190601f1680156125785780820380516001836020036101000a031916815260200191505b509350505050602060405180830381600087803b15801561259857600080fd5b505af11580156125ac573d6000803e3d6000fd5b505050506040513d60208110156125c257600080fd5b81019080805190602001909291905050509050823a02670de0b6b3a7640000018111156125f5576000801b91505061279a565b6060612600856127bb565b90506000809054906101000a900473ffffffffffffffffffffffffffffffffffffffff1673ffffffffffffffffffffffffffffffffffffffff1663c55c1cb68360008985896040518663ffffffff1660e01b8152600401808581526020018060200180602001848152602001838103835286818151815260200191508051906020019080838360005b838110156126a4578082015181840152602081019050612689565b50505050905090810190601f1680156126d15780820380516001836020036101000a031916815260200191505b50838103825285818151815260200191508051906020019080838360005b8381101561270a5780820151818401526020810190506126ef565b50505050905090810190601f1680156127375780820380516001836020036101000a031916815260200191505b5096505050505050506020604051808303818588803b15801561275957600080fd5b505af115801561276d573d6000803e3d6000fd5b50505050506040513d602081101561278457600080fd5b8101908080519060200190929190505050925050505b9392505050565b80600290805190602001906127b7929190612beb565b5050565b60606127c561283b565b6127cd612c6b565b6127d981610400612847565b6127e281612891565b60008090505b83518110156128245761281784828151811061280057fe5b60200260200101518361289f90919063ffffffff16565b80806001019150506127e8565b5061282e816128c4565b8060000151915050919050565b60405180590338823950565b600081905060006020828161285857fe5b0614612871576020818161286857fe5b06602003810190505b808360200181815250506040518084526000815281810160405250505050565b61289c8160046128d2565b50565b6128ac82600283516128f3565b6128bf8183612a3390919063ffffffff16565b505050565b6128cf8160076128d2565b50565b6128ef601f60058360ff16901b1783612ade90919063ffffffff16565b5050565b6017811161291f5761291a8160058460ff16901b60ff161784612ade90919063ffffffff16565b612a2e565b60ff811161296057612944601860058460ff16901b1784612ade90919063ffffffff16565b61295a81600185612b1e9092919063ffffffff16565b50612a2d565b61ffff81116129a257612986601960058460ff16901b1784612ade90919063ffffffff16565b61299c81600285612b1e9092919063ffffffff16565b50612a2c565b63ffffffff81116129e6576129ca601a60058460ff16901b1784612ade90919063ffffffff16565b6129e081600485612b1e9092919063ffffffff16565b50612a2b565b67ffffffffffffffff8111612a2a57612a12601b60058460ff16901b1784612ade90919063ffffffff16565b612a2881600885612b1e9092919063ffffffff16565b505b5b5b5b5b505050565b612a3b612c6b565b82602001518360000151518351011115612a6b57612a6a836002612a6486602001518651612b85565b02612ba1565b5b60008060008451905085518051602081830101945086518101825260208701935050505b60208110612ab25781518352602083019250602082019150602081039050612a8f565b60006001826020036101000a039050801983511681855116818117865250508694505050505092915050565b81602001516001836000015151011115612b0457612b03826002846020015102612ba1565b5b815180516020818301018381536001820183525050505050565b612b26612c6b565b836020015184600001515183011115612b5457612b53846002612b4d876020015186612b85565b02612ba1565b5b60006001836101000a0390508451805184818301018684198251161781528582018352505050849150509392505050565b600081831115612b9757829050612b9b565b8190505b92915050565b606082600001519050612bb48383612847565b612bbe8382612a33565b50505050565b60405180608001604052806004905b6060815260200190600190039081612bd35790505090565b828054600181600116156101000203166002900490600052602060002090601f016020900481019282601f10612c2c57805160ff1916838001178555612c5a565b82800160010185558215612c5a579182015b82811115612c59578251825591602001919060010190612c3e565b5b509050612c679190612c85565b5090565b604051806040016040528060608152602001600081525090565b612ca791905b80821115612ca3576000816000905550600101612c8b565b5090565b9056fe506c6163652061206265742074686174207468652067616d652063616e20646f75626c65206974732076616c7565214d617070696e6720757064617465642e2057616974696e6720666f722072616e646f6d206e756d6265722e50726f7661626c65207175657279207761732073656e742c207374616e64696e6720627920666f722074686520616e737765722e436f696e20736964652073686f756c64206f6e6c7920626520312028686561647329206f72203020287461696c7329206f6e6c792ea265627a7a72315820fcc37a43dd41175b9826c3ded9839d0552005abfc1db40ed1507ffa809bceb1764736f6c634300050c0032436f6e7472616374206465706c6f796d656e74206e65656473203120657468657220746f2066756e64207468652067616d6520696e697469616c6c792e",
  "source": "import \"./provableAPI.sol\";\r\n\r\npragma solidity 0.5.12;\r\n\r\ncontract CoinFlip is usingProvable{\r\n    address public owner;\r\n\r\n    uint public contractBalance;\r\n\r\n    uint256 constant NUM_RANDOM_BYTES_REQUESTED = 1;\r\n    uint public latestNumber;\r\n\r\n    constructor() public payable {\r\n        require(msg.value == 1 ether, \"Contract deployment needs 1 ether to fund the game initially.\");\r\n\r\n        owner = msg.sender;\r\n        contractBalance = msg.value;\r\n    }\r\n\r\n    struct results{\r\n        address payable playerAddress;\r\n        uint betValue;\r\n        uint side;\r\n\r\n        uint randomNumber;\r\n        bool winOrLose;\r\n    }\r\n\r\n    mapping (bytes32 => results) public _results;\r\n\r\n    //Events ---------\r\n    event LogNewProvableQuery(string description);\r\n    event generatedRandomNumber(uint256 randomNumber);\r\n\r\n    event mappingUpdated(string description);\r\n    event playerInfoAdded(string description);\r\n\r\n    event win(string description);\r\n    event lose(string description);\r\n\r\n    //Game proper ---------\r\n\r\n    function bet(uint _coinSide) public payable {\r\n        require(msg.value * 3 < contractBalance, \"Place a bet that the game can double its value!\");\r\n        require(_coinSide == 1 || _coinSide == 0, \"Coin side should only be 1 (heads) or 0 (tails) only.\");\r\n\r\n        contractBalance += msg.value;\r\n\r\n        uint256 QUERY_EXECUTION_DELAY = 0;\r\n        uint256 GAS_FOR_CALLBACK = 200000;\r\n\r\n        bytes32 queryId = provable_newRandomDSQuery(\r\n            QUERY_EXECUTION_DELAY,\r\n            NUM_RANDOM_BYTES_REQUESTED,\r\n            GAS_FOR_CALLBACK\r\n            );\r\n\r\n            emit LogNewProvableQuery(\"Provable query was sent, standing by for the answer.\");\r\n\r\n        _results[queryId].playerAddress = msg.sender;\r\n        _results[queryId].betValue = msg.value;\r\n        _results[queryId].side = _coinSide;\r\n\r\n            emit mappingUpdated(\"Mapping updated. Waiting for random number.\");\r\n    }\r\n\r\n    function __callback(bytes32 _queryId, string memory _result) public {\r\n        require(msg.sender == provable_cbAddress(), \"Callback error.\");\r\n\r\n        uint256 randomNumber = uint256(keccak256(abi.encodePacked(_result))) % 2;\r\n        latestNumber = randomNumber;\r\n\r\n        emit generatedRandomNumber(randomNumber);\r\n\r\n        processResults(_queryId, latestNumber);\r\n    }\r\n\r\n    function processResults(bytes32 id, uint number) private {\r\n        _results[id].randomNumber = number;\r\n\r\n        //player wins double of his betting amount\r\n\r\n        if (_results[id].randomNumber == 1){\r\n            _results[id].winOrLose == true;\r\n                uint prize =  _results[id].betValue * 3;\r\n                _results[id].playerAddress.transfer(prize);\r\n\r\n                contractBalance -= prize;\r\n\r\n                emit win(\"You won!\");\r\n        }\r\n        if (_results[id].randomNumber == 0){\r\n            _results[id].winOrLose == false;\r\n\r\n                contractBalance += _results[id].betValue;\r\n\r\n                emit lose(\"You lost.\");\r\n        }\r\n    }\r\n\r\n    function withdrawBal() public {\r\n        require(msg.sender == owner);\r\n        uint balance = contractBalance;\r\n\r\n        msg.sender.transfer(balance);\r\n        contractBalance = 0;\r\n    }\r\n\r\n    function viewContractBalance() public view returns(uint) {\r\n        return address(this).balance;\r\n    }\r\n\r\n    function showOwner() public view returns(address) {\r\n        return owner;\r\n    }\r\n\r\n    function donate() public payable {\r\n       require(msg.value > 0 wei, \"Please enter a valid amount.\");\r\n       contractBalance += msg.value;\r\n   }\r\n\r\n}\r\n",
  "sourcePath": "C:/Users/niell/Desktop/CoinFlip Project/CoinFlip Smart Contract Code/contracts/CoinFlip.sol",
  "compiler": {
    "name": "solc",
    "version": "0.5.12+commit.7709ece9.Emscripten.clang"
  },
  "schemaVersion": "3.0.16",
  "updatedAt": "2020-11-26T11:40:13.881Z",
  "devdoc": {
    "methods": {}
  },
  "userdoc": {
    "methods": {}
  }
}